S0180000526F626F744669726D776172657632322E73726563EF
S21440000028074020ED014000E9014000E90140009A
S214400010E9014000E9014000E9014000000000001D
S214400020000000000000000000000000E901400061
S214400030E901400000000000E9014000E9014000FD
S214400040E9014000E9014000E9014000E9014000C3
S214400050E9014000E9014000E9014000E9014000B3
S214400060E901400000000000790E40006D0E40009F
S214400070E9014000E9014000E9014000E901400093
S214400080E9014000E9014000E9014000E901400083
S214400090E9014000E9014000E9014000E901400073
S2144000A0E9014000E9014000E9014000E901400063
S2144000B0E9014000E9014000E9014000111040001C
S2144000C0E9014000E9014000E9014000E901400043
S2144000D0E9014000E9014000E9014000E901400033
S2144000E0E9014000E9014000E9014000E901400023
S2144000F0E9014000E9014000E9014000E901400013
S214400100E9014000E9014000E9014000E901400002
S214400110E9014000E9014000000000000000000046
S214400120E9014000E9014000E9014000E9014000E2
S214400130E9014000E9014000E9014000E9014000D2
S214400140E9014000E9014000E9014000E9014000C2
S214400150E9014000E9014000E9014000E9014000B2
S214400160E9014000E901400010B5054C237833B959
S214400170044B13B10448AFF300800123237010BD35
S2144001806400402000000000783040000C4B43B133
S2144001900C480D4910B5AFF300800C48036823B9EE
S2144001A010BD0A48036833B97047094B002BF7D097
S2144001B0BDE810401847064B002BF5D0184700BF47
S2144001C00000000078304000680040207830400052
S2144001D00000000008B5024B9847024B984708BD00
S2144001E0F1044000691C4000FEE7000008B5104BD3
S2144001F0104A9A4209D00E4B0E4A03E01168196025
S214400200043304320C498B42F8D30C4B02E00022F4
S2144002101A6004330A4A9342F9D30A4A0A4B23F037
S2144002207F039360094B9847094B9847FEE700BF0A
S21440023000004020783040006400402064004020A9
S2144002402401402000ED00E000004000891C4000F2
S21440025035184000034B02225A611A66C3F89020B4
S2144002601A60704700100E40034B20225A611A66EF
S214400270C3F890201A607047000E0E40184B1A6F55
S21440028042F400621A675A6F22F400625A674FF4CB
S21440029000625A60A3F5C0631A6F22F004021A6720
S2144002A05A6F22F004025A6704225A6003F58063AC
S2144002B01A6F42F400221A675A6F22F400225A67D5
S2144002C04FF400225A601A6F42F400521A675A6F6F
S2144002D022F400525A674FF400525A60704700BFEB
S2144002E000140E40044B9B69002B03DB4FF000428A
S2144002F0014B1A61704700BF00060E4008B5064B1A
S2144003009847064B9847064B984702460549064885
S214400310064B984708BD00BFE50240007D024000FE
S214400320D111400000000240B80040206D08400057
S214400330114B1A6F42F480121A675A6F22F48012D9
S2144003405A674FF480125A601A6F42F400121A67C6
S2144003505A6F22F400125A674FF400125A601A6F0E
S21440036042F480021A675A6F22F480025A674FF4AA
S21440037080025A60704700BF00140E40044B9B69D1
S21440038013F4001F03D14FF40012014B1A6170475B
S21440039000060E4010B5084B9847084B9847084C47
S2144003A001462046074B984707492046074B984743
S2144003B0074B984710BD00BF7D034000D113400057
S2144003C0E0004020ED084000008000400D0940005D
S2144003D0310340000A4B1A6F22F010021A675A6F18
S2144003E022F010025A6710225A601A6F22F0080252
S2144003F01A675A6F22F008025A6708225A607047F6
S214400400000E0E40044B9B6913F4002F03D14FF4AB
S2144004100022014B1A61704700060E4008B5044B97
S214400420984704490448054B9847054B984708BDEC
S2144004300504400000800140F8004020B907400015
S214400440D503400008B50248024B984708BD00BF98
S21440045010E000E0DD0540000F4B1A6F22F400125A
S2144004601A675A6F22F400125A674FF400125A6005
S2144004700A4AD2F8143143F01003C2F81431084B3C
S2144004801A6F42F010021A675A6F42F010025A670B
S21440049010225A60704700BF000E0E400080084091
S2144004A000100E40044B9B6913F4804F03D14FF469
S2144004B08042014B1A61704700060E4008B5064B55
S2144004C09847064B9847064B9847024605490648C4
S2144004D0064B984708BD00BFA5044000590440009D
S2144004E03118400000800240D4004020390B4000C4
S2144004F008B5274B9847274B9B6913F4806F03D169
S2144005004FF48062234B1A61224B9B6913F4006FB1
S21440051003D14FF400621F4B1A611E4B9B6913F4C4
S214400520805F03D14FF480521A4B1A61194B9B6976
S21440053013F4803F03D14FF48032164B1A61164AAB
S214400540536843F400435360144B01221A631A6104
S2144005501A6003F580634FF400725A631A611A609A
S21440056003F500734FF000725A631A611A600C4B21
S21440057098470C4B98470C4B98470C4B98470C4B5E
S21440058098470C4B98470C4B98470C4B984708BDE0
S214400590FD0B400000060E4050180E40000E0E4068
S2144005A05502400069024000FD02400095034000AD
S2144005B01D04400045044000BD0440005506400070
S2144005C0EFF31083036072B6BFF35F8F7047BFF3DD
S2144005D05F8F036883F310887047000008B5024BAE
S2144005E01860024B984708BD80004020E913400041
S2144005F010B5044B1C68044B984701462046034BF5
S214400600984710BD80004020F10B4000F513400095
S21440061038B50225002407E00D4A52F83330B3B10E
S214400620984738BD013AD5B2AC4210D82B195B106A
S214400630DAB2012A0BD81346054901EBC2014968D4
S2144006408142E9D08142EDD20132D4B2ECE738BDE6
S2144006508400402008B500230AE0084A02EBC301A4
S2144006604FF0FF304860002142F8331001339BB210
S214400670012BF2D90248034B984708BD840040201E
S21440068011064000850E4000F0B583B005460023B5
S214400690012B0ED818462E4A02EBC3025268AA42D5
S2144006A002D00133DBB2F3E7294B43F83010012781
S2144006B000E0002759B1002F3DD10026012E13D867
S2144006C0234B53F8363043B10136F6B2F6E7002FE7
S2144006D038D028461F4B984732E01D4B43F836101B
S2144006E003EBC6035D600127002301E00133DBB264
S2144006F0012B98BF012E1ED8B646154A02EBC601FE
S214400700486802EBC30252689042EFD2B2F1FF3F14
S214400710ECD00F4C04EBC30292E803008DE80300D4
S21440072004EBC60494E8030082E803009DE8030057
S21440073084E80300DAE747B101212846054B98478D
S21440074003B0F0BD6FF00C00FAE76FF00C00F7E76F
S21440075084004020AD0E400010B584B00389ADF84B
S2144007600430144602924FF40043ADF8063003912D
S21440077001A91438034B984710B9204604B010BD61
S2144007800446FAE7B514400010B584B00389ADF8C6
S21440079004301446029248F20103ADF80630039145
S2144007A001A91438034B984710B9204604B010BD31
S2144007B00446FAE7B514400038B50D4604465E22B6
S2144007C00849003018BF0120074B98472946204665
S2144007D0064B9847034618B9054AA261054A626126
S2144007E0184638BDB42D4000AD0B40006D14400097
S2144007F0890740005907400070B5164604460D4626
S214400800002818BF002914BF0120002034220449C4
S214400810044B98472368324629462046984770BD81
S214400820D02D4000AD0B400070B5164604460D4630
S214400830002818BF002914BF012000203D2204498B
S214400840044B98476368324629462046984770BD11
S214400850D02D4000AD0B400008B5436903B1984722
S21440086008BD08B5836903B1984708BD38B5044646
S2144008700D46002818BF002914BF0120002033224F
S2144008800649074B984729462046064B9847064B4D
S2144008902360064B6360002038BD00BFE42D400057
S2144008A0AD0B40002510400059084000630840004A
S2144008B010B504464A220949003018BF0120084BAB
S2144008C098472046074B984720B92046064B9847FE
S2144008D0002010BD6FF0100010BD00BFE42D40009A
S2144008E0AD0B4000A11140005D11400038B50D46EB
S2144008F0044639220349003018BF0120024B98476E
S214400900256038BDFC2D4000AD0B400038B5044690
S2144009100D46002818BF002914BF012000204022A1
S21440092009490A4B9847204640F8045F2946084B39
S2144009309847002807DB4FF40043A382054B23610A
S214400940054BE360002038BDFC2D4000AD0B400059
S214400950F5114000010A4000C509400010B50446A4
S21440096057220549003018BF0120044B9847201DE8
S214400970034B984710BD00BFFC2D4000AD0B400018
S2144009809D12400030B585B005460C46002818BF7D
S214400990002914BF01200020B3220749074B98477F
S2144009A02368019363680293A368039301A9281DF3
S2144009B0034B984705B030BDFC2D4000AD0B4000C2
S2144009C0D112400070B584B00E4615460446A322A8
S2144009D00849003018BF0120074B98470023029370
S2144009E00196039501A9A4F10C00044B984704B066
S2144009F070BD00BFFC2D4000AD0B40008509400097
S214400A0070B584B00E461546044687220849003025
S214400A1018BF0120074B9847029600230193039581
S214400A2001A9A4F10C00044B984704B070BD00BF68
S214400A30FC2D4000AD0B40008509400038B504460B
S214400A400D46002818BF002914BF01200020BD22F3
S214400A500349044B98470C342C60002038BD00BF37
S214400A60FC2D4000AD0B4000F8B5164605460F4637
S214400A70002818BF002902D00ABB002000E0002052
S214400A80F1221049104B984705F1080420460F4BB9
S214400A9098470028F8D00025795D20460C4B9847AB
S214400AA020460A4B98470028FAD00135B542F3D382
S214400AB02046084B98470028FAD02846F8BD012023
S214400AC0DEE700BF182E4000AD0B4000B9174000CF
S214400AD071174000E11740002DE9F04117460546E2
S214400AE08846002818BF002902D0D2B9002000E06E
S214400AF000204FF486720C490C4B9847002605F1AF
S214400B00080420460A4B98470028F8D02046094B50
S214400B10984708F806000136BE42F0D33046BDE896
S214400B20F0810120E5E700BF182E4000AD0B4000E5
S214400B30091840009517400038B504460D46002871
S214400B4018BF002914BF0120002034220749084B53
S214400B509847294604F10800064B9847034618B9BB
S214400B60054A6260054A2260184638BD182E400085
S214400B70AD0B400005174000D90A4000690A400006
S214400B8010B5044653220649003018BF0120054BD5
S214400B90984704F10800044B9847002010BD00BF5A
S214400BA0182E4000AD0B40003D17400000B900BE77
S214400BB0704700000346064A126822B1044A10688D
S214400BC00344136070470349014A1160F6E700BFCB
S214400BD094004020280740204FF0FF3070474FF4E5
S214400BE000534B600020704701207047002070473C
S214400BF04FF4967303FB00F07047000000B583B0D7
S214400C0001A80E4B98470E4AD2F8883043F470033A
S214400C10C2F88830BFF34F8FBFF36F8F01A8094BE0
S214400C209847094A136823F4706343F4C06313601B
S214400C30064B984703B05DF804FB00BFC105400073
S214400C4000ED00E0CF054000000C0E40A90F40002C
S214400C5030B400258D4210D2012200231F2B0AD823
S214400C6050F82540224202D152000133F6E703EB0A
S214400C70451030BC70470135ECE74FF0FF30F8E7E1
S214400C8010B586B000230193029303930493059313
S214400C90214B1868F8222149003018BF0120204B0C
S214400CA09847204BDA6C9B6C134001931E49CA6CE4
S214400CB0896C0A400292134325E0174B1B68204676
S214400CC09847631104F01F04012202FA04F406AAAE
S214400CD002EB830353F8142C22EA040243F8142C44
S214400CE0052101A8114B98470446B4F1FF3FE4D1D3
S214400CF00C4AD16C936C0B4001930B49C86C8A6CC0
S214400D000240029213432BB1052101A8074B984796
S214400D100446EAE706B010BD98004020742E400016
S214400D20AD0B4000000E0E4000100E40510C40002F
S214400D3010B50446D2220549003018BF0120044BA6
S214400D40984704482044C0F3472010BD742E400006
S214400D50AD0B400000F2F1BF10B50446E0220D494D
S214400D60003018BF01200C4B984720460B4B984745
S214400D700023012B0BD8C3EBC3018A0008498A5CC9
S214400D80904202D00133DBB2F3E758B210BD4FF0C9
S214400D90FF3010BD742E4000AD0B4000310D4000BA
S214400DA0342E400038B5044640F2591229490030E6
S214400DB018BF0120284B98472046284B98470028C4
S214400DC043DB274DC200111A8B002B449968C4F8A8
S214400DD0B010D968C4F8C0101969C4F8C4109B692B
S214400DE0C4F8D030101A83002B445B69C4F8D43062
S214400DF020461C4B9847284490F93830002B0CDB93
S214400E005A0903F01F00012181402032164840F85D
S214400E102210BFF34F8FBFF36F8F002B08DB5A09AA
S214400E2003F01F000121814060320F4840F8221035
S214400E30002B0DDB590903F01F03012202FA03F3CE
S214400E40094A42F82130002038BD6FF0100038BD06
S214400E50002038BD742E4000AD0B4000590D4000B8
S214400E60342E4000310D400000E100E008B5014B53
S214400E70984708BD810C400008B5014B984708BD0F
S214400E80810C400038B505460448054CA047054847
S214400E90A047054B1D60002038BD00BF000E0E4029
S214400EA0A50D400000100E40980040202DE9F0416E
S214400EB004460F46DFF850804FF4D37241469F28D1
S214400EC08CBF002001200E4EB047E5B2C3224146FB
S214400ED09F2D8CBF00200120B0476D09094B03EBC6
S214400EE0452504F01F0437B9012303FA04F46C6463
S214400EF00020BDE8F081012303FA04F42C64F7E7F0
S214400F00AD0B4000000E0E40742E40000E490A6A9B
S214400F1022F002020D4B13430B620B4B9B6E13F0F9
S214400F20010FFAD0084B196A094A0A431A62996AAD
S214400F30084A0A409A62084A9A62034B9B6E13F02C
S214400F40020FFAD0704700BF00060E40013E370041
S214400F5000003701FFFF00F8013F1820114A136BCD
S214400F6023F0700313630F4B9B6E13F0080FFAD0F9
S214400F700C4A136B23F4407343F480731363094B9A
S214400F809B6E13F0080FFAD0064A136B23F0030348
S214400F9043F002031363034B9B6E13F0080FFAD023
S214400FA0704700BF00060E4008B5024B9847024BFC
S214400FB0984708BD0D0F40005D0F400000230BB161
S214400FC000207047C3EB03118A0006498A588242C4
S214400FD002D00133DBB2F2E7C3EB03139A000846B4
S214400FE010447047902E4000034B984200D0704704
S214400FF0024B1960FBE700BF000002409C00402007
S21440100008B50369DB6913B1036803B1984708BDA7
S21440101008B5024B1868024B984708BD9C00402014
S21440102001104000F8B506460C46081C18BF0120C3
S21440103040F271124449454B98472046444B9847E6
S2144010400546346183682360C368E3670369C4F870
S21440105080304369E3658369A366C369C4F8C030DA
S214401060036AE366436AC4F82C34836AC4F84C3493
S214401070002319E02F6B180107EB000E3A5CDEF8F0
S214401080041010325201A1503A5CDEF80C101032B7
S21440109004EB421251603A5CDEF8081004EB421250
S2144010A0C2F80C1201335BB2EA6A9342E2D30023E1
S2144010B014E0A96B03EB4300820001EB020E885C50
S2144010C0DEF8047004EB0010C0F838718A5CDEF875
S2144010D0081013321201A15001335BB26A6B93427F
S2144010E0E7D3314620461B4B984795F90430002BF2
S2144010F00DDB5A0903F01F03012101FA03F32032E6
S214401100154941F82230BFF34F8FBFF36F8F95F9E3
S2144011100430002B09DB5A0903F01F03012101FAB2
S21440112003F360320C4941F8223095F90430002B25
S21440113008DB590903F01F03012202FA03F3064AAB
S21440114042F821300020F8BD0C2F4000AD0B400087
S214401150BD0F4000E90F400000E100E038B504460E
S2144011604FF4D4720B49003018BF01200A4B984701
S21440117020690A4B9847002308E02169056B1A014D
S214401180AD5C0122AA404A6001335BB2C26A934218
S214401190F3D338BD0C2F4000AD0B4000BD0F4000D0
S2144011A010B5044640F2D1120749003018BF01205E
S2144011B0064B98472369DB6813F00F0F01D00120D8
S2144011C010BD002010BD00BF0C2F4000AD0B4000EE
S2144011D0002070470123036000207047044B0344FF
S2144011E0C3F30743052B01D000207047012070470A
S2144011F00080FFBF70B506460C460846204B984711
S21440120000233BB300254FF49A721E49002E18BFA8
S214401210002C14BF012000201B4B984755B3236970
S21440122013F4803F29D18023236034606A68174BCB
S21440123013402360AB68164A1A40164B134363604C
S214401240EB6823632B8AF380EB6803F0F00333717B
S214401250002070BD03EB83018A000F498A5C9042F0
S21440126002D00133DBB2CCE703EB8305AB000D467F
S2144012701D44C8E76FF00C0070BD6FF0100070BDE5
S214401280DD114000382F4000AD0B40007CFFFFFED4
S2144012906FFFF1FF10000E00242F400010B50446EB
S2144012A068B103684BB101204FF4B9720549064B4B
S2144012B098472068054B984710BD0020F4E700206B
S2144012C0F2E700BF382F4000AD0B4000D51140007C
S2144012D02DE9F04186B007460D4604680B68019339
S2144012E04B68029300230393049303798DF81430DC
S2144012F0261C18BF012640F23122334900280CBF75
S214401300002006F00100314B9847236913F4803FD4
S21440131022D16FF0130053E0002335E0507841EAC5
S21440132000210232019201330393E160D4F8108029
S21440133040F2222224493046244B984718F0080FA2
S21440134038D06FF01200002836DB0398AB6898421E
S21440135002D3049A93422FD9236913F0010FDBD0AE
S214401360A3689BB2029A5AB1511C029113709DF821
S2144013701420012A04D90A46013102911B0A13702F
S214401380049B013304930123002BCFD1039B049A83
S2144013909A42CBD3F988226912F0020FC6D0019A3E
S2144013A0002AC0D0511C019111789DF814000128E4
S2144013B0B4D8B8E70020C6E7236913F4007FFBD013
S2144013C006B0BDE8F08100BF382F4000AD0B4000AE
S2144013D000207047034B6FF07F425A6005221A6028
S2144013E0704700BF10E000E008B5014B984708BDC5
S2144013F0D5134000080E0DE00D4B6FF07F4058604F
S21440140098600B4B1B6813F4803FFAD001F17F4184
S21440141001311046431EDAB20028EDD1044B596024
S2144014209960034B1B6813F4803FFAD0704700BFA7
S21440143010E000E000233BB10020704703EB43047C
S214401440E300084618440CE010B403EB4301CA001E
S21440145005498A588242F1D00133DBB2002BF4D0E2
S21440146000205DF8044B7047502F400038B50446C6
S2144014700D46002818BF002914BF012000207822FE
S21440148009490A4B984725612846094B98474368BF
S2144014902B60236982689A632369C2685A64236909
S2144014A002691A61002038BD682F4000AD0B40002D
S2144014B03514400038B504460D46002818BF0029AC
S2144014C014BF01200020BA225249534B98476388E4
S2144014D013F4807F40F09A806B8813F0010F18D188
S2144014E06B889BB243F480736B802B8813F4806FB9
S2144014F05FD022691B0A43F078031B0403F4FE0303
S21440150043F48073536023692A78DA6000200146EA
S2144015105CE06B889BB243F480736B802B8813F43B
S214401520806F22D022691B0A43F078031B0403F421
S214401530FE0343F48853536023692A78DA602369AC
S2144015406A68012A19D001221A6000216B68994204
S21440155022D223691A6A12F0020F10D11B6A13F4C2
S214401560807FF6D06FF0010038BD22691B0403F47B
S214401570FE0343F480535360E1E70322E4E7AA689E
S2144015801B6B53546B68023B994201D00131DDE737
S214401590236902221A60F9E723691B6A13F0010FD8
S2144015A0FAD063889BB223F480739BB2638000209A
S2144015B038BD22691B0403F4FE035360A6E76FF0B0
S2144015C0010078B9AB685B5C536301316B68994244
S2144015D008D22269136A13F4807FF0D113F0040F07
S2144015E0F7D0EEE76B8813F4004F06D163889BB2C2
S2144015F023F480739BB2638038BD236902221A604D
S21440160023691B6A13F0010FFAD0EFE76FF005006D
S21440161038BD00BF682F4000AD0B400010B50446F3
S21440162040F22B220549003018BF0120044B984752
S21440163004482044C0F3873010BD00BF902F4000C0
S214401640AD0B400000C0FDBF10B5044640F28722F7
S2144016500E49003018BF01200D4B984720460D4BD1
S2144016609847002343B140F2912208490020084B96
S21440167098470023184610BD03EB43018A000649ED
S2144016808A5C9042F6D00133DBB2EBE7902F400005
S214401690AD0B40001D164000842F400010B5044698
S2144016A040F29E221149003018BF0120104B984747
S2144016B02046104B9847104BC4F8E4300023636034
S2144016C06362A362AC2222604FF4807222604FF4C1
S2144016D00022226000EB40008100084A0A4452681B
S2144016E06260074A2262184610BD00BF902F400035
S2144016F0AD0B40004916400000415355842F400032
S214401700F4000100F8B50C46094E0746BD223146A6
S214401710003018BF0120074DA847BE223146201C86
S21440172018BF0120A8473C602046034B9847F8BDA9
S214401730902F4000AD0B40009D16400070B50A4EFD
S214401740044640F205123146003018BF0120074DCE
S214401750A847246840F2C7223146201C18BF012003
S214401760A8475023236070BD902F4000AD0B40002B
S21440177038B50C4605464FF4D4720449003018BFBD
S2144017800120034B98472B68DC6138BD902F400002
S214401790AD0B400010B504464FF4DD7204490030EE
S2144017A018BF0120034B984723689869C0B210BD04
S2144017B0902F4000AD0B400010B5044640F2C312D7
S2144017C00549003018BF0120044B984723685869E4
S2144017D0C0F3400010BD00BF902F4000AD0B40004E
S2144017E010B504464FF4E6720549003018BF012094
S2144017F0044B984723685869C0F3402010BD00BF8B
S214401800902F4000AD0B400010B504464FF4EF72E9
S2144018100549003018BF0120044B98472368586993
S21440182000F0010010BD00BF902F4000AD0B4000FF
S2144018300020704700B589B0114B98472022002100
S2144018406846104B984768460F4B9847C8200F4B42
S21440185098470F4B98470F4C20460F4B98476421AC
S21440186020460E4B9847642120460D4B98476421EE
S21440187020460C4B9847642120460B4B9847FEE782
S214401880D5014000E11C4000411A4000F1054000EF
S214401890F91A4000B8004020B1084000691B4000DB
S2144018A0791B4000891B4000991B400030B583B02F
S2144018B040F020008DF804008DF80510064C4FF4DB
S2144018C000756563022201A9044B1868044B9847CB
S2144018D0256303B030BD00BF00120E401C014020FF
S2144018E0F90740002DE9F04383B08846914640F022
S2144018F0200002A901F8010D084C4FF400756563FD
S214401900074F01223868074EB0471FFA89F2414612
S2144019103868B047256303B0BDE8F08300120E4038
S2144019201C014020F907400070B582B002A901F8BA
S214401930020D0A4C4FF400756563094E012230686B
S214401940084B984701220DF107013068064B98472F
S21440195025639DF8070002B070BD00BF00120E4020
S2144019601C014020F90740002908400030B583B0EC
S21440197002A901F8010D064C4FF40075656301227B
S214401980044B1868044B9847256303B030BD00BF2E
S21440199000120E401C014020F907400070B582B08E
S2144019A002A9612301F8013D184C4FF400756563A8
S2144019B0174E01223068174B98472022164B19685D
S2144019C03068164B984725630B20154B9847E22006
S2144019D08DF80700134B98470720134B984740F065
S2144019E04001C9B20720114B9847002406E00A4B35
S2144019F01B68195D0E480F4B984701341F2CF6DDC7
S214401A000D480E4B984702B070BD00BF00120E4006
S214401A101C014020F90740001801402029084000DA
S214401A20F10540006D19400029194000AD184000EE
S214401A30B42F4000491E4000BC2F4000311F4000DC
S214401A4030B583B00546204C20492046204B984769
S214401A502046204B9847204B1D604FF000721F4B8E
S214401A605A63002108461E4CA04707201D4B984746
S214401A7040F04001C9B20720A04700210120A047FE
S214401A8000210220A04703210846A0470021042049
S214401A90A04778210520A04706210846A047124BBC
S214401AA093E8030000908DF8041005226946102044
S214401AB00E4B984702210020A0470D4921200D4B90
S214401AC0984703B030BD00BFE00040201C014020D6
S214401AD03D0A40005D0940001801402000140E40B9
S214401AE0AD18400029194000AC2F4000E5184000D2
S214401AF09D1940008906400010B582B000200F4B6B
S214401B00984740F00101C9B200200D4CA047022181
S214401B100846A0470B4B93E8030000908DF804104E
S214401B20052269460B20084B984720211220A047E3
S214401B304FF00072054B1A6302B010BD29194000E1
S214401B40AD184000AC2F4000E518400000140E4091
S214401B50036949010B44C3F80822036919444FF44A
S214401B603763C1F81032704708B50A460021014B6A
S214401B70984708BD511B400008B50A460121014B55
S214401B80984708BD511B400008B50A460221014B44
S214401B90984708BD511B400008B50A460321014B33
S214401BA0984708BD511B400058B908B50B4611462A
S214401BB01846054B9847002800DB08BD4FF0FF301D
S214401BC008BD4FF0FF307047211C40000138022806
S214401BD00BD808B50B4611461846054B98470028C3
S214401BE000DB08BD4FF0FF3008BD4FF0FF307047B8
S214401BF0451C400070B50646064D2B680021986887
S214401C00054CA0472B6800215868A047034B1E6030
S214401C1070BD00BF00004020611F4000AC00402067
S214401C2008B5064B1B6833B10A46014692B21846C1
S214401C30034B984708BD002008BD00BFAC004020BD
S214401C402908400008B5064B1B6833B10A460146D2
S214401C5092B21846034B984708BD002008BD00BF07
S214401C60AC004020F907400010B5044C2046044B19
S214401C7098472046034B984710BD00BFD4004020ED
S214401C80810B4000F51B400070B50D4E0D4CA41B5B
S214401C90A4100025A54209D10B4E0C4C01F0DCF9EE
S214401CA0A41BA4100025A54205D170BD56F82530CA
S214401CB098470135EEE756F8253098470135F2E764
S214401CC0643040006430400064304000683040007B
S214401CD0024B0146186800F059B800BF000040208B
S214401CE002440346934200D1704703F8011BF9E7CC
S214401CF038B50546002945D051F8043C0C1F002B4A
S214401D00B8BFE41800F082FC1F4A1368104633B987
S214401D10636014602846BDE8384000F078BCA342B3
S214401D200CD921686218934204BF1A685B686360E6
S214401D3004BF521822600460ECE713465A680AB1A2
S214401D40A242FAD919685818A0420BD1206801441B
S214401D50581882421960DDD1106852685A600144B2
S214401D601960D7E702D90C232B60D3E720682118E7
S214401D708A4204BF11685268626004BF0918216035
S214401D805C60C7E738BD00BFB000402070B5CD1CD2
S214401D9025F0030508350C2D38BF0C25002D0646CA
S214401DA001DBA94203D90C233360002070BD00F04C
S214401DB02DFC234A1468214691B9224C23681BB94E
S214401DC0304600F0BDF820602946304600F0B8F8AE
S214401DD0431C26D10C233360304600F018FCE4E761
S214401DE00B685B1B1AD40B2B0FD90B60CD50CC184D
S214401DF0304600F00CFC04F10B00231D20F00700D9
S214401E00C31A1BD05A42E25070BD8C420DBF636865
S214401E104B686360136018BF0C46E9E70C46496898
S214401E20CAE7C41C24F00304A04205D0211A304659
S214401E3000F086F80130CDD02560D9E770BD00BFF0
S214401E40B0004020B40040200FB40A4B13B51C68C5
S214401E5024B1A36913B9204600F0EAFA05AB049A08
S214401E60A1680193204600F0FBFB02B0BDE810409D
S214401E7004B070470000402070B50E46054618B1C5
S214401E8083690BB900F0D4FAAB69AC6813B928463D
S214401E9000F0CEFA234B9C4217D16C68A3891B07EF
S214401EA01DD52369DBB1013EA36816F8011F013B2F
S214401EB0A360E9B9002B2EDA22460A21284600F014
S214401EC005F9013011D00A2070BD174B9C4201D154
S214401ED0AC68E3E7154B9C4208BFEC68DEE721465A
S214401EE0284600F045F90028DDD04FF0FF3070BDA1
S214401EF0002B04DAA269934206DB0A2904D0236841
S214401F005A1C22601970CFE72246284600F0DEF8B9
S214401F100130C9D1E9E723680A205A1C22601870AC
S214401F2070BD00BFE42F400004304000C42F400086
S214401F30024B01461868FFF79FBF00BF00004020D5
S214401F4038B5064C0023054608462360FEF732FEA9
S214401F50431C02D1236803B12B6038BD20014020CA
S214401F6000294FF480630CBF0222002200F000B824
S214401F702DE9F7431D46514B1E6804460F469046D2
S214401F8026B1B36913B9304600F052FA4C4B9C4226
S214401F9052D17468B8F1020F06D0B8F1010F00F2C2
S214401FA08980002DC0F286802146304600F0D6F962
S214401FB0616B41B104F14403994202D03046FFF7C9
S214401FC097FE002363630023A3616360A3891B0617
S214401FD003D521693046FFF78BFEA38923F44A6375
S214401FE023F00303B8F1020FA3815DD001AB6A462C
S214401FF02146304600F0A6FAA3891843A0812DBB9F
S214402000009D2846FFF764FE074600284ED1DDF8BF
S2144020100090A9453CD14FF0FF30A38943F002031E
S214402020A3810023A36004F14703236023610123B7
S214402030636103B0BDE8F083224B9C4201D1B46893
S214402040A8E7214B9C4208BFF468A3E7002FD8D0EE
S214402050B36913B9304600F0EBF9B8F1010F08BF89
S214402060A389276004BF43F00103A381A3892761A6
S21440207013F0080065611BD013F0010018BF6D42D5
S2144020804FF000031DBFA360A5611846A560D0E7CA
S2144020904846FFF71DFE07460028BCD0A38943F0FC
S2144020A08003A3814D46D3E70020B6E7A946F5E76F
S2144020B0A060BEE74FF0FF30BBE700BF0000402007
S2144020C0E42F400004304000C42F4000F8B50E46D0
S2144020D01446054618B183690BB900F0A9F9214B9F
S2144020E09C422AD16C68A369A360A3891A072ED59F
S2144020F0236963B323692068C01A6369F6B29842BD
S214402100374604DB2146284600F028F928BBA3685A
S214402110013BA36023685A1C22601E70636901302D
S214402120984204D0A389DB0719D50A2E17D1214639
S214402130284600F013F990B10FE00B4B9C4201D1BA
S214402140AC68D0E7094B9C4208BFEC68CBE7214619
S214402150284600F00DF80028CCD04FF0FF37384620
S214402160F8BD00BFE42F400004304000C42F4000BC
S214402170324B70B51D6806460C4625B1AB6913B99F
S214402180284600F055F92E4B9C420FD16C68B4F9A6
S2144021900C309AB215072CD4D00611D409223260DE
S2144021A043F04003A3814FF0FF3070BD254B9C4267
S2144021B001D1AC68EBE7244B9C4208BFEC68E6E7ED
S2144021C0510712D5616B41B104F14403994202D0E4
S2144021D03046FFF78DFD00236363A38923F0240375
S2144021E0A3810023636023692360A38943F0080327
S2144021F0A38123694BB9A38903F42073B3F5007F09
S21440220003D02146304600F0C1F9A28912F00103FE
S2144022100CD00023A36063695B42A361236953B972
S214402220B4F90C3013F08000BAD170BD920758BF95
S2144022306369A360F2E70020F7E700BF0000402094
S214402240E42F400004304000C42F40008A892DE926
S214402250F041054610070C465AD44B68002B05DC67
S2144022600B6C002B02DC0020BDE8F081E66A002EF5
S214402270F9D0002312F480522F682B6033D0606D63
S214402280A3895A0705D56368C01A636B0BB1236CE4
S214402290C01A00230246E66A216A2846B047431C15
S2144022A0A38906D129681D294BD82B4ACA40D60790
S2144022B047D500226260D9042269226004D5421CB8
S2144022C001D12B6803B96065616B2F600029CAD0C5
S2144022D004F14403994202D02846FFF709FD002046
S2144022E06063BDE8F081216A01232846B047411C5F
S2144022F0C6D12B68002BC3D01D2B01D0162B01D185
S2144023002F60B0E7A38943F04003A381BDE8F08186
S2144023100F69002FA7D093070E6808BF4B690F6060
S21440232018BF0023A6EB07088B60B8F1000F9ADDB4
S21440233043463A46216AA66A2846B047002807DC44
S214402340A38943F04003A3814FF0FF30BDE8F081FE
S2144023500744A8EB0008E8E70100402038B50B69C1
S21440236005460C46DBB118B183690BB900F060F83E
S2144023700C4B9C4209D16C68B4F90C307BB12146B9
S2144023802846BDE83840FFF761BF074B9C4201D165
S214402390AC68F1E7054B9C4208BFEC68ECE70020D0
S2144023A038BD00BFE42F400004304000C42F40003A
S2144023B0014900F0A9B800BF5D234000002310B5D6
S2144023C0044603604360836081814366C281036143
S2144023D043618361194608225C30FFF781FC054B58
S2144023E06362054BA362054BE362054B246223639D
S2144023F010BD00BFB92B4000DB2B4000132C400023
S214402400372C400070B54A1E682555430E4605F1E8
S2144024107401FFF7BBFC044640B1002180E842004F
S2144024200C30A06005F16802FFF75AFC204670BDEC
S214402430836910B5044633BB8364C3640365124B9B
S214402440124A1B688262984204BF0123836100F0EF
S2144024501FF86060204600F01BF8A060204600F0A1
S21440246017F80022E06004216068FFF7A7FF01220A
S2144024700921A068FFF7A2FF02221221E068FFF7B9
S2144024809DFF0123A36110BDC02F4000B123400033
S214402490F8B51C4B1E68B369074613B93046FFF7BC
S2144024A0C7FF4836B4687368013B03D5336833B119
S2144024B03668F7E7B4F90C506DB16834F4E7042198
S2144024C03846FFF79FFF30600028F1D10C233B6071
S2144024D004462046F8BD4FF6FF73E3810123A381EF
S2144024E065662560A560656025616561A561082211
S2144024F0294604F15C00FFF7F3FB6563A563A5641A
S214402500E564E6E7C02F40002DE9F843804689465B
S21440251000F14804002614B93046BDE8F883A568A3
S2144025206768013F01D52468F5E7AB89012B07D9D9
S214402530B5F90E30013303D029464046C847064316
S2144025406835EEE770B50E46B1F90E10002990B02A
S21440255014461D4607DA00232B60B3891A0610D4AA
S2144025604FF480630EE001AA00F08CFB0028F2DBFB
S214402570029A02F47042A2F500535A425A412A6027
S214402580EEE740230020236010B070BD8B8973B502
S2144025909D0706460C4607D504F147032360236192
S2144025A00123636102B070BD01AB6A46FFF7CAFF04
S2144025B0009905463046FFF7E9FB48B9B4F90C30B8
S2144025C09A05EFD423F0030343F00203A381E3E725
S2144025D00D4BB362A389206043F08003A381009B28
S2144025E06361019B20615BB1B4F90E10304600F088
S2144025F05BFB28B1A38923F0030343F00103A381C7
S214402600A3891D43A581CDE7B1234000704770479D
S2144026109368013B002B10B4936008DA9469A34298
S21440262002DBCBB20A2B02D110BCFFF74FBD1368BA
S214402630581C10601970C8B210BC7047F8B50646F2
S2144026400F461446D518AC4201D1002007E03A4662
S21440265014F8011B3046FFF7DBFF431CF3D1F8BDEF
S2144026602DE9F04F9DB00C4617460393064618B129
S21440267083690BB9FFF7DCFE7C4B9C4257D17468EC
S214402680A38918075DD52369002B5AD000230993E8
S21440269020238DF8293030238DF82A304FF0010B57
S2144026A0B846454615F8013B002B55D1B8EB070A0E
S2144026B00BD053463A4621463046FFF7BFFF01301F
S2144026C000F0C480099B5344099398F80030002BCF
S2144026D000F0BC8000234FF0FF320493079305922E
S2144026E006938DF853301A9305222978604800F0F7
S2144026F0FFFA05F10108049B002831D1D90644BFF2
S21440270020228DF853201A0744BF2B228DF85320E1
S2144027102A782A2A2CD0079A00210A20A846013572
S21440272098F80030303B092B6DD971B326E0514BF9
S2144027309C4201D1B468A3E74F4B9C4208BFF46863
S2144027409EE721463046FFF713FD00289ED04FF007
S214402750FF301DB0BDE8F08F252BA7D0A846A0E7D8
S214402760434A801A0BFA00F0184304904546BBE7EC
S214402770039A111D12680391002A01DB079204E0B8
S214402780524243F002030792049398F800302E2BEF
S21440279010D198F801302A2B08F1010137D1039B5C
S2144027A01A1D1B680392002BB8BF4FF0FF3308F189
S2144027B002080593314D98F800100322284600F091
S2144027C097FA40B14023401B03FA00F0049B0343B2
S2144027D0049308F1010898F8001029488DF828104D
S2144027E0062208F1010700F083FA002834D0254B72
S2144027F003BB039B073323F0070308330393099B6C
S2144028004B4409934CE700FB0232012186E7002344
S214402810059318460A258846013198F80020303A34
S214402820092A03D9002BC5D00590C3E705FB002035
S2144028300123F0E703AB00932246134B04A930462E
S214402840AFF30080B0F1FF3F8146D8D1A3895B0645
S2144028503FF57DAF09987CE703AB009322460A4BD1
S21440286004A9304600F088F8ECE700BFE42F4000AB
S2144028702430400004304000C42F40002A3040003E
S2144028802E304000000000003D2640002DE9F04775
S21440289091461F468A680B69DDF820809342B8BF90
S2144028A01346C9F8003091F8432006460C4612B14C
S2144028B00133C9F800302368990642BFD9F8003082
S2144028C00233C9F80030256815F0060507D104F133
S2144028D0190AE368D9F800209B1A9D4229DB94F830
S2144028E043302268003318BF012392062ED404F1E9
S2144028F0430239463046C047013021D02368E56858
S214402900D9F8002003F00603042B08BFAD1AA368CD
S21440291022690CBF25EAE57500259342C4BF9B1A81
S214402920ED184FF000091A344D451BD10020BDE884
S214402930F0870123524639463046C047013003D11E
S2144029404FF0FF30BDE8F0870135C2E7E1185A1C6A
S214402950302081F84300224494F8451082F8431012
S2144029600233C4E70123224639463046C047013089
S214402970E6D009F10109D7E72DE9F04317460A7E6C
S21440298085B06E2A984606460C460C9B01F1430ECF
S21440299000F0BC801AD8632A2ED00AD8002A00F04D
S2144029A0C880582A00F08A8004F1420584F8422004
S2144029B02AE0642A01D0692AF6D121681A6811F003
S2144029C0800F23D0111D1960136827E0732A00F08A
S2144029D0B48008D86F2A2AD0702AE5D10A6842F017
S2144029E020020A6003E0752A21D0782ADCD17822BA
S2144029F084F845206E4964E01A6801F14205111DCD
S214402A001960136884F842300123A3E011F0400FA8
S214402A1002F104011960D7D0B2F90030002B03DA76
S214402A202D225B4284F8432062490A2217E0206840
S214402A30196810F0800F03D0081D18600B6806E078
S214402A4010F0400F01F104001860F7D00B88594988
S214402A506F2A14BF0A220822002084F843006568C3
S214402A60A560002DC0F29C80206820F00400206005
S214402A70002B3FD1002D40F095807546082A0BD19B
S214402A802368DA0708D5236962689A42DEBF302396
S214402A9005F8013C05F1FF35AEEB05032361CDF8A3
S214402AA000803B4603AA21463046FFF7EFFE013042
S214402AB055D14FF0FF3005B0BDE8F08381F8452092
S214402AC03C492268186812F0800F00F104051D602A
S214402AD001D0036802E05506FBD50388D00744BF03
S214402AE042F0200222601BB9226822F020022260B7
S214402AF01022B1E77546B3FBF2F002FB1033CB5C15
S214402B0005F8013D03460028F5D1B7E708681A687E
S214402B10496910F0800F04D0101D186013681960C2
S214402B2007E010F0400F02F1040018601368F6D07A
S214402B301980002323617546B1E71A68111D196094
S214402B40156862680021284600F0D2F808B1401B9C
S214402B50606063682361002384F843309FE72369FD
S214402B602A4639463046C0470130A2D023689B07E4
S214402B7007D5002504F11909E368039A9B1A9D427C
S214402B8005DBE068039B9842B8BF184693E70123ED
S214402B904A4639463046C04701308AD00135EBE7D1
S214402BA0002BA7D10B7884F8423004F1420565E744
S214402BB0463040003530400010B50C46B1F90E1096
S214402BC000F0E6F80028ABBF636DA3891B1823F41A
S214402BD08053ACBF6365A38110BD2DE9F0411F460D
S214402BE08B89DB0505460C46164605D50223002292
S214402BF0B1F90E1000F068F8A389B4F90E1023F46A
S214402C008053A38132463B462846BDE8F04100F05B
S214402C1017B810B50C46B1F90E1000F055F8431C25
S214402C20A38915BF606523F4805343F48053A38182
S214402C3018BFA38110BDB1F90E1000F013B8000004
S214402C4038B5074C054608461146002222601A460B
S214402C50FEF7BCFF431C02D1236803B12B6038BD8E
S214402C602001402038B5064C002305460846236020
S214402C70FDF7B2FF431C02D1236803B12B6038BD79
S214402C802001402038B5074C00230546084611462B
S214402C902360FDF7A4FF431C02D1236803B12B60D9
S214402CA038BD00BF2001402038B5064C00230546FD
S214402CB008462360FDF798FF431C02D1236803B102
S214402CC02B6038BD2001402038B5074C05460846E5
S214402CD01146002222601A46FDF788FF431C02D1A7
S214402CE0236803B12B6038BD20014020000000005F
S214402CF001F0FF01102A2BDB10F0070F08D010F868
S214402D00013B013A8B422DD010F0070F42B3F6D16B
S214402D10F0B441EA012141EA014122F007047FF084
S214402D2000070023F0E80256083C85EA010586EADB
S214402D30010685FA47F5A3FA87F586FA47F6A5FA17
S214402D4087F68EB9EED1F0BC01F0FF0102F0070223
S214402D5032B110F8013B013A83EA010313B1F8D1CE
S214402D600020704701387047002D06BF35460338AF
S214402D70073815F0010F07D1013015F4807F02BFE8
S214402D80013015F4C03F0130F0BC0138704700BF39
S214402D9038B5074C054608461146002222601A46BA
S214402DA0FEF702FF431C02D1236803B12B6038BDF7
S214402DB0200140202E2E2F68616C2F7372632F687F
S214402DC0616C5F6932635F6D5F73796E632E63001B
S214402DD02E2E2F68616C2F7372632F68616C5F694B
S214402DE06F2E63002E2E2F68616C2F7372632F68D0
S214402DF0616C5F70776D2E63000000002E2E2F688A
S214402E00616C2F7372632F68616C5F7370695F6D5E
S214402E105F73796E632E63002E2E2F68616C2F735E
S214402E2072632F68616C5F75736172745F73796EDD
S214402E30632E630000000000200000002000000019
S214402E4020000000000000000000000020000000FD
S214402E500100000002000000020000000200000026
S214402E600000000000000000020000000A0B0C10EA
S214402E70110000002E2E2F68706C2F70696F2F681F
S214402E80706C5F70696F5F6578742E630000000039
S214402E90000002401F000000010001000100000089
S214402EA001000000FF0000000000000004000000D9
S214402EB000000000000000000000000004000000C9
S214402EC0CC2E400000000000A00040200000000083
S214402ED0080200000004000000020000010000009C
S214402EE0080200000004000000020000020000008B
S214402EF0080200000004000000020000030000007A
S214402F000802000000040000000200002E2E2F6879
S214402F10706C2F70776D2F68706C5F70776D2E6356
S214402F2000000000000000000000008001000000DB
S214402F3002FA9604FFFF00002E2E2F68706C2F7347
S214402F4070692F68706C5F7370692E6300000000B4
S214402F50008001402000000000000000000000004B
S214402F60BABA0200F04902002E2E2F68706C2F74F9
S214402F70776968732F68706C5F74776968732E63BF
S214402F800000000001000000C0081000F40001002E
S214402F902E2E2F68706C2F75736172742F68706C4C
S214402FA05F75736172742E6300000000EEDDCCBB6B
S214402FB0AA00000025303278200000000D000000F6
S214402FC00400402000000000000000000000000058
S214402FD000000000000000000000000000000000AC
S214402FE0000000000000000000000000000000009C
S214402FF0000000000000000000000000000000008C
S214403000000000000000000000000000000000007B
S214403010000000000000000000000000000000006B
S21440302000000000232D302B2000686C4C006566A5
S21440303067454647003031323334353637383941C4
S21440304042434445460030313233343536373839DA
S2144030506162636465660000F8B500BFF8BC08BCF2
S2144030609E4670478D014000F8B500BFF8BC08BCCE
S20C4030709E46704769014000CE
S2144030780400402000000000E42F400004304000D8
S214403088C42F4000000000000000000000000000C0
S21440309800000000000000000000000000000000E3
S2144030A800000000000000000000000000000000D3
S2144030B800000000000000000000000000000000C3
S2144030C800000000000000000000000000000000B3
S2084030D800000000AF
S804400000BB
